:020000040000FA
:0400000013EF00F00A
:060008000482A7EF00F0E6
:100018000480E0CF01F001C0E0FF04901000A2EFDF
:1000280000F0A9EC00F094EC00F08180020E036E61
:10003800E80E026E520E0400E82EFDD7022EFBD702
:10004800032EF9D7020E036EE80E026E520E04005C
:10005800E82EFDD7022EFBD7032EF9D7020E036E2A
:10006800E80E026E520E0400E82EFDD7022EFBD7D2
:10007800032EF9D7020E036EE80E026E520E04002C
:10008800E82EFDD7022EFBD7032EF9D7020E036EFA
:10009800E80E026E520E0400E82EFDD7022EFBD7A2
:1000A800032EF9D78190020E036EE80E026E520EEF
:1000B8000400E82EFDD7022EFBD7032EF9D7020E37
:1000C800036EE80E026E520E0400E82EFDD7022ED3
:1000D800FBD7032EF9D7020E036EE80E026E520EFE
:1000E8000400E82EFDD7022EFBD7032EF9D7020E07
:1000F800036EE80E026E520E0400E82EFDD7022EA3
:10010800FBD7032EF9D7020E036EE80E026E520ECD
:100118000400E82EFDD7022EFBD7032EF9D785D78A
:100128009390949C948EAC98AC9CAC8AAB9CAB8816
:10013800AB8EAA96AC94330EAF6E12000490049264
:0C014800000115EF00F0049211001200FD
:020000040020DA
:08000000FFFFFFFFFFFFFFFF00
:020000040030CA
:0E000000FFC20D3E3C9D81FF0FC00FE00F4080
:00000001FF
