:020000040000FA
:0400000013EF00F00A
:0600080004824FEF00F03E
:100018000480E0CF01F001C0E0FF0490100046EF3B
:1000280000F04BEC00F038EC00F08180010E036E1C
:10003800F40E026EA80E0400E82EFDD7022EFBD7A0
:10004800032EF9D7040000F08190010E036EF40E20
:10005800026EA80E0400E82EFDD7022EFBD7032E51
:10006800F9D7040000F0E1D79390949C948EAC9853
:10007800AC9CAC8AAB9CAB88AB8EAA96AC94330E86
:10008800AF6E120004900492000115EF00F0700E9C
:0A009800D312D350FED704921100DA
:020000040020DA
:08000000FFFFFFFFFFFFFFFF00
:020000040030CA
:0E000000FFC60F3E3C9D81FF0FC00FE00F407A
:00000001FF
