:020000040000FA
:0400000013EF00F00A
:060008005F8263EF05F0CA
:100018005F80E0CF6FF06FC0E0FF5F90100084EF6B
:0200280008F0DE
:100300000074696D65723A2025780D0A0050574DCA
:10031000204572726F720074696D6572210D0A005A
:0103200000DC
:100322000001DBAFDC93DBBF05D0DB5108E1DA056E
:10033200D8B005D0000EA46F010EA36F04D0DAC0AE
:10034200A3F0DBC0A4F0D8C0A5F0D9C0A6F0DCA908
:1003520004D0FE0EA527FF0EA6238EC0A7F08FC0E5
:10036200A8F090C0A9F091C0AAF092C0ABF093C0DF
:10037200ACF094C0ADF095C0AEF0000EB06F1F0EA1
:10038200AF6F000E01011F6F94D0AF07D8A0B00766
:100392000F0EA715B16FB26BB2BF08D0B25104E114
:1003A2000A0EB15DD8A002D0570E01D0300EB12591
:1003B200B16F000EB221B26FBF0E976FFF0E986F32
:1003C2009651996F9A6B9751992798519A239A51FE
:1003D20006E11A0E995DD8B002D0010E01D0000ECE
:1003E2009F6FA06B9F51A011D8B427D09F0E976F1B
:1003F200FF0E986F200EB111996F000EB2119A6F15
:100402009751992798519A239A5106E11A0E995DAC
:10041200D8B002D0010E01D0000EA16FA26BA15183
:10042200A211D8B40AD0B1C076F0B2C077F014EC01
:1004320007F076C0B1F077C0B2F0000E0001AF2530
:10044200D96E010EB021DA6EB1C0DFFFA307D8A0CA
:10045200A407A507D8A0A607A7C097F0A8C098F040
:10046200A9C099F0AAC09AF0ABC09BF0ACC09CF0B6
:10047200ADC09DF0AEC09EF0050E09D0D8909E335F
:100482009D339C339B339A33993398339733E82EB9
:10049200F5D797C0A7F098C0A8F099C0A9F09AC064
:1004A200AAF09BC0ABF09CC0ACF09DC0ADF09EC06A
:1004B200AEF00001B0BF20D0B05104E1020EAF5D3A
:1004C200D8A01AD0A751A811A911AA11AB11AC1129
:1004D200AD11AE11D8A459D7A4BF05D0A45102E1E1
:1004E200A305D8B052D7A6BF07D0A65103E1A505F0
:1004F200D8A002D0DCB349D7DCA916D0AF07D8A068
:10050200B007000EAF25D96E010EB021DA6E96C08B
:10051200DFFFAF07D8A0B007000EAF25D96E010EDE
:10052200B021DA6E300EDF6E8CC081F08DC082F0A9
:10053200000EAF25836F010EB021846FA5C085F038
:10054200A6C086F0B5EC05F081C08CF082C08DF0BB
:1005520012000001DBAFDC93DBBF05D0DB5108E109
:10056200DA05D8B005D0000E356E010E346E04D017
:10057200DAC034F0DBC035F0D8C036F0D9C037F07D
:10058200DCA904D0FE0E3626FF0E37221FC038F03B
:1005920020C039F021C03AF022C03BF023C03CF029
:1005A20024C03DF025C03EF026C03FF0000E416E53
:1005B2001F0E406E000E01011F6F93D04006D8A09F
:1005C20041060F0E3814426E436A43BE08D04350B0
:1005D20004E10A0E425CD8A002D0570E01D0300EC0
:1005E2004224426E000E4320436EBF0E286EFF0E61
:1005F200296E27502A6E2B6A28502A2629502B2230
:100602002B5006E11A0E2A5CD8B002D0010E01D09E
:10061200000E306E316A30503110D8B427D09F0EA0
:10062200286EFF0E296E200E42102A6E000E431015
:100632002B6E28502A2629502B222B5006E11A0E07
:100642002A5CD8B002D0010E01D0000E326E336A9D
:1006520032503310D8B40AD042C007F043C008F079
:100662005FEC07F007C042F008C043F0000E4024E0
:10067200D96E010E4120DA6E42C0DFFF3406D8A0E7
:1006820035063606D8A0370638C028F039C029F01A
:100692003AC02AF03BC02BF03CC02CF03DC02DF0FC
:1006A2003EC02EF03FC02FF0050E09D0D8902F3259
:1006B2002E322D322C322B322A3229322832E82E97
:1006C200F5D728C038F029C039F02AC03AF02BC03B
:1006D2003BF02CC03CF02DC03DF02EC03EF02FC0B0
:1006E2003FF041BE21D0415004E1020E405CD8A04F
:1006F2001BD0385039103A103B103C103D103E10C0
:100702003F10D8A45BD735BE05D0355002E1340482
:10071200D8B054D737BE08D0375003E13604D8A03A
:1007220003D00001DCB34AD70001DCA916D0400691
:10073200D8A04106000E4024D96E010E4120DA6E87
:1007420027C0DFFF4006D8A04106000E4024D96E24
:10075200010E4120DA6E300EDF6E1DC012F01EC097
:1007620013F0000E4024146E010E4120156E36C0A7
:1007720016F037C017F004EC06F012C01DF013C0DB
:100782001EF01200B5C0D9FFB6C0DAFFDECFF6FF09
:10079200DDCFF7FF0800F550250AD8A4A9D0B5C0CF
:1007A200D9FFB6C0DAFFDE2A000EDD22000E0001FC
:1007B200D96F000ED86FD8C0DCF0D9C0DDF0DA698D
:1007C200DB69B5C0D9FFB6C0DAFFDECFF6FFDDCFF9
:1007D200F7FF0800F550780AD8B40DD0B5C0D9FF9C
:1007E200B6C0DAFFDECFF6FFDDCFF7FF0800F55027
:1007F200580AD8A44DD0B5C0D9FFB6C0DAFFDECFB3
:10080200F6FFDDCFF7FF0800F5CFC5F0B5C0D9FF81
:10081200B6C0DAFFDE2A000EDD22B7C0D9FFB8C0AB
:10082200DAFFDFCFB9F0020EDE26DFCFBAF0000E1C
:10083200DD22B9C0D9FFBAC0DAFFDECFBBF0DDCF0F
:10084200BCF0BBC0BDF0BCC0BEF0BF6BC06BC16B27
:10085200C26BC36BC46BB3C08CF0B4C08DF0BDC0AF
:100862008EF0BEC08FF0BFC090F0C0C091F0C1C08A
:1008720092F0C2C093F0C3C094F0C4C095F0C5C05A
:1008820096F091EC01F08CC0B3F08DC0B4F0120080
:10089200B5C0D9FFB6C0DAFFDECFF6FFDDCFF7FF76
:1008A2000800F550250AD8A417D0B5C0D9FFB6C0A4
:1008B200DAFFDE2A000EDD22000E726F250E716F46
:1008C200B3C073F0B4C074F051EC06F0000E000136
:1008D200B46F010EB36F1200B5C0D9FFB6C0DAFF14
:1008E200DE2A000EDD22000EB46F000EB36F12007E
:1008F200B5C0D9FFB6C0DAFFDECFF6FFDDCFF7FF16
:100902000800F5500001716F726BB3C073F0B4C090
:1009120074F051EC06F0B5C0D9FFB6C0DAFFDE2A9A
:10092200000EDD22D3D746C0D9FF47C0DAFFDECFA3
:10093200F6FFDDCFF7FF0800F550250AD8A4A8D0AE
:1009420046C0D9FF47C0DAFFDE2A000EDD22000EC4
:100952000001D96F000ED86FD8C0DCF0D9C0DDF02D
:10096200DA69DB6946C0D9FF47C0DAFFDECFF6FF9E
:10097200DDCFF7FF0800F550780AD8B40DD046C095
:10098200D9FF47C0DAFFDECFF6FFDDCFF7FF080061
:10099200F550580AD8A44DD046C0D9FF47C0DAFF57
:1009A200DECFF6FFDDCFF7FF0800F5CF56F046C0E9
:1009B200D9FF47C0DAFFDE2A000EDD2248C0D9FF88
:1009C20049C0DAFFDFCF4AF0020EDE26DFCF4BF05E
:1009D200000EDD224AC0D9FF4BC0DAFFDECF4CF059
:1009E200DDCF4DF04CC04EF04DC04FF0506A516A11
:1009F200526A536A546A556A44C01DF045C01EF0DB
:100A02004EC01FF04FC020F050C021F051C022F064
:100A120052C023F053C024F054C025F055C026F034
:100A220056C027F0AAEC02F01DC044F01EC045F0EB
:100A3200120046C0D9FF47C0DAFFDECFF6FFDDCF96
:100A4200F7FF0800F550250AD8A416D046C0D9FFF2
:100A520047C0DAFFDE2A000EDD22000E036E250EED
:100A6200026E44C004F045C005F088EC06F0000EAA
:100A7200456E010E446E120046C0D9FF47C0DAFF30
:100A8200DE2A000EDD22000E456E000E446E1200BC
:100A920046C0D9FF47C0DAFFDECFF6FFDDCFF7FF52
:100AA2000800F550026E036A44C004F045C005F028
:100AB20088EC06F046C0D9FF47C0DAFFDE2A000EF6
:100AC200DD22D5D7E1CF67F0E2CF68F0D9CF69F068
:100AD200DACF6AF0F6CF6BF0F7CF6CF0F8CF6DF0AB
:100AE200F5CF6EF0F2A42ED00001E04BE12B170EF1
:100AF200606F030E616F25EC08F0000ED76E000EDA
:100B0200D66E0001E051E111D8B41BD0E005E1112D
:100B1200D8B417D0020EE019E111D8A412D0000EF9
:100B2200E16F000EE06F83AE02D0010E01D0000E25
:100B3200FF0A666F66336633835066197F0B661948
:100B4200836EF2946EC0F5FF6DC0F8FF6CC0F7FFC4
:100B52006BC0F6FF6AC0DAFF69C0D9FF68C0E2FF66
:100B620067C0E1FF5F9211000001DCA10AD083C0DF
:100B72007AF084C07BF081C07CF082C07DF084EC8E
:100B820007F0000186BF05D085C08AF086C08BF0D1
:100B920004D0000E8B6F000E8A6F000E896F000E5C
:100BA200886F0DD0000E726F200E716F81C073F0CE
:100BB20082C074F051EC06F00001884B892B8A51F7
:100BC200885D8951800A876F8B51800A8759D8A026
:100BD200E9D7DCB10AD083C07AF084C07BF081C04F
:100BE2007CF082C07DF084EC07F083C070F084C09A
:100BF20071F06DEC08F000018A517025816F8B5104
:100C02007121826F12000001DCA10AD014C00BF026
:100C120015C00CF012C00DF013C00EF0A2EC07F0DC
:100C220017BE05D016C01BF017C01CF004D0000E72
:100C32001C6E000E1B6E000E1A6E000E196E0CD08A
:100C4200000E036E200E026E12C004F013C005F0F7
:100C520088EC06F0194A1A2A1B50195C1A50800AAD
:100C6200186E1C50800A1858D8A0EAD70001DCB1CF
:100C72000AD014C00BF015C00CF012C00DF013C056
:100C82000EF0A2EC07F014C001F015C002F099ECCE
:100C920008F01B500124126E1C500220136E120029
:100CA200000173517411D8B404D073517411D8A4D3
:100CB20004D07151F4EC08F0120020EE04F07351EC
:100CC200D9267451DA22DE50DE10D8B416D020EEC6
:100CD20004F07351D9267451DA2210EE02F07351E6
:100CE200E1267451E222DE50E65CE650800A796F1A
:100CF200DE50800A7959D8B0120020EE02F073510A
:100D0200D9267451DA22DE2A000EDD2212000450A6
:100D12000510D8B404D004500510D8A404D0025051
:100D2200FEEC08F0120020EE04F00450D926055023
:100D3200DA22DE50DE10D8B416D020EE04F00450D1
:100D4200D9260550DA2210EE02F00450E1260550B1
:100D5200E222DE50E65CE650800A0A6EDE50800A2D
:100D62000A58D8B0120020EE02F00450D9260550DD
:100D7200DA22DE2A000EDD221200C8C0CCF0C9C081
:100D8200CDF0000E0001D76F000ED66F13D0C6C093
:100D9200B3F0C7C0B4F0CC0EB56F000EB66FCAC0C8
:100DA200B7F0CBC0B8F0C3EC03F00001B351D627C3
:100DB200B451D723CCC0F6FFCDC0F7FF0800F550E1
:100DC2000009D8A4E4D7D6C0C6F0D7C0C7F0120035
:100DD20059C05DF05AC05EF0000E0001D76F000EE0
:100DE200D66F13D057C044F058C045F05D0E466E22
:100DF200000E476E5BC048F05CC049F094EC04F012
:100E020044500001D6274550D7235DC0F6FF5EC08F
:100E1200F7FF0800F5500009D8A4E4D7D6C057F070
:100E2200D7C058F012009F0E0001786FFF0E796F45
:100E320076C07AF077C07BF078517A2779517B239C
:100E42007B5106E11A0E7A5DD8B002D0010E01D0B4
:100E5200000E7C6F7D6B7C517D11D8B405D05F0E86
:100E62007615766F776B120076C076F077C077F0E2
:100E72001200000E806E000E816E000E836E000E58
:100E8200846E000E936E000E956E370E896E000E04
:100E92008A6E000E8C6E030E8D6E0C0E7F6E800EAF
:100EA2007E6E370E6F6E000E6E6E010E7A6E380E0B
:100EB2007B6E340E796E030E786E12009F0E096EF1
:100EC200FF0E0A6E07C00BF008C00CF009500B268B
:100ED2000A500C220C5006E11A0E0B5CD8B002D05C
:100EE200010E01D0000E0D6E0E6A0D500E10D8B418
:100EF20005D05F0E0714076E086A120007C007F0DC
:100F020008C008F01200000E0001806F000E7F6F13
:100F12000CD07EC071F0726B7CC073F07DC074F037
:100F220051EC06F000017F4B802B7F517A25D96E60
:100F320080517B21DA6EDF507E6F7E51D8B4120071
:100F4200E8D7000E116E000E106E0BD00FC002F02B
:100F5200036A0DC004F00EC005F088EC06F0104ADA
:100F6200112A10500B24D96E11500C20DA6EDF506A
:100F72000F6E0F50D8B41200E9D79F0E0001726FA6
:100F8200FF0E736F200E7011746F000E7111756F6A
:100F92007251742773517523755106E11A0E745DEF
:100FA200D8B002D0010E01D0000E706F716B12002A
:100FB2009F0E036EFF0E046E200E0110056E000ED2
:100FC2000210066E0350052604500622065006E162
:100FD2001A0E055CD8B002D0010E01D0000E016ECF
:100FE200026A12009F0E0001726FFF0E736F70C0D3
:100FF20074F071C075F07251742773517523755175
:1010020006E11A0E745DD8B002D0010E01D0000EB6
:10101200706F716B1200BF0E0001726FFF0E736F63
:1010220070C074F071C075F07251742773517523DA
:10103200755106E11A0E745DD8B002D0010E01D0CE
:10104200000E706F716B1200620E0001646F000E71
:10105200656F000E576E000E586E60C059F061C089
:101062005AF0640E5B6E000E5C6EE9EC06F057C03F
:1010720062F058C063F012009F0E036EFF0E046E02
:1010820001C005F002C006F00350052604500622F6
:10109200065006E11A0E055CD8B002D0010E01D04E
:1010A200000E016E026A1200BF0E036EFF0E046E86
:1010B20001C005F002C006F00350052604500622C6
:1010C200065006E11A0E055CD8B002D0010E01D01E
:1010D200000E016E026A120070C072F071C073F0ED
:1010E20003D00001704B712B70C0D9FF71C0DAFFC1
:1010F200DF50D8A4F6D700017251705D706F735142
:101102007159716F120001EE00F0200EEE6AE806CE
:10111200FDE100EED6F00C0EEE6AE806FDE15F900E
:101122005F92000EF86E030EF76E0001D5EF08F025
:1011320001C003F002C004F002D0014A022A01C039
:10114200D9FF02C0DAFFDF50D8A4F7D70350015C01
:10115200016E04500258026E1200D00E0001D46FCC
:10116200000ED56F000EC66F000EC76FCEC0C8F05E
:10117200CFC0C9F0D40ECA6F000ECB6FBEEC06F022
:101182001200D59ED59CD59AD596D550F80B030959
:10119200D56E000ED76E000ED66EF294F28AD09EF5
:1011A200F28CF28ED58E12000EEC09F007EC09F0EB
:1011B2003AEC07F0010E0001CE6F030ECF6FD6CFCF
:1011C200D0F0D7CFD1F0AEEC08F0F4D7949C948E47
:1011D200AC98AC9CAC8AAB9CAB88AB8EAA96AC9418
:1011E200810EAF6E12000001706F260EAC6EAB8ED8
:1011F2009EA8FED770C0ADFF1200016E260EAC6E27
:10120200AB8E9EA8FED701C0ADFF1200959E959CA5
:0C121200E7EC08F0C2EC08F0120012003B
:020000040020DA
:08000000FFFFFFFFFFFFFFFF00
:020000040030CA
:0E000000FFC20D3E3C1D81FF0FC00FE00F4000
:00000001FF
