:020000040000FA
:0400000013EF00F00A
:0600080004823EEF00F04F
:100018000480E0CF01F001C0E0FF0490100034EF4D
:1000280000F039EC00F03CEC00F08180010E036E2A
:10003800C30E026EED0E0400E82EFDD7022EFBD78C
:10004800032EF9D78190010E036EC30E026EED0EDA
:100058000400E82EFDD7022EFBD7032EF9D7E5D7EB
:1000680004900492000115EF00F0700ED3121200F4
:080078009390120004921100A4
:020000040020DA
:08000000FFFFFFFFFFFFFFFF00
:020000040030CA
:0E000000FFC80F3F3C9D85FF0FC00FE00F4073
:00000001FF
