:020000040000FA
:0400000013EF00F00A
:060008005082A7EF02F098
:100018005080E0CF60F060C0E0FF5090100054EFD7
:0200280003F0E3
:100300000068656C6C6F20776F726C64212F722FA0
:030310006E00007C
:100314007EEC03F079EC03F08180020E0001626F41
:10032400E80E616F510E0400E82EFDD7612FFBD754
:10033400622FF9D7040000F00400020E0001626F7E
:10034400E80E616F510E0400E82EFDD7612FFBD734
:10035400622FF9D7040000F00400020E0001626F5E
:10036400E80E616F510E0400E82EFDD7612FFBD714
:10037400622FF9D7040000F00400020E0001626F3E
:10038400E80E616F510E0400E82EFDD7612FFBD7F4
:10039400622FF9D7040000F00400020E0001626F1E
:1003A400E80E616F510E0400E82EFDD7612FFBD7D4
:1003B400622FF9D7040000F004008190020E0001BE
:1003C400626FE80E616F510E0400E82EFDD7612FB5
:1003D400FBD7622FF9D7040000F00400020E0001DD
:1003E400626FE80E616F510E0400E82EFDD7612F95
:1003F400FBD7622FF9D7040000F00400020E0001BD
:10040400626FE80E616F510E0400E82EFDD7612F74
:10041400FBD7622FF9D7040000F00400020E00019C
:10042400626FE80E616F510E0400E82EFDD7612F54
:10043400FBD7622FF9D7040000F00400020E00017C
:10044400626FE80E616F510E0400E82EFDD7612F34
:10045400FBD7622FF9D7040000F00400D5BE04D006
:100464000001616B612B02D00001616B6133613368
:10047400D55061197F0B6119D56E4ED735C0D9FFA0
:1004840036C0DAFFDECFF6FFDDCFF7FF0800F55008
:10049400250AD8A440D035C0D9FF36C0DAFFDE2AF9
:1004A400000EDD22000E246E000E236E23C027F002
:1004B40024C028F02568266835C0D9FF36C0DAFF85
:1004C400DECFF6FFDDCFF7FF0800F550250AD8A4EC
:1004D40016D035C0D9FF36C0DAFFDE2A000EDD2281
:1004E400000E2B6E250E2A6E33C02CF034C02DF076
:1004F400E2EC02F0000E346E010E336E120035C0D1
:10050400D9FF36C0DAFFDE2A000EDD22000E346E7B
:10051400000E336E120035C0D9FF36C0DAFFDECFCD
:10052400F6FFDDCFF7FF0800F5502A6E2B6A33C0C3
:100534002CF034C02DF0E2EC02F035C0D9FF36C007
:10054400DAFFDE2A000EDD22D5D7E1CF48F0E2CF74
:1005540049F0D9CF4AF0DACF4BF0F6CF4CF0F7CFD1
:100564004DF0F8CF4EF0F5CF4FF0F2A417D0CF0EE8
:10057400D76E2C0ED66E93B203D0476A472A01D0A9
:10058400476A474693504718FD0B4718936EF294F9
:10059400010E416E030E426E41EC03F04FC0F5FFB5
:1005A4004EC0F8FF4DC0F7FF4CC0F6FF4BC0DAFF5A
:1005B4004AC0D9FF49C0E2FF48C0E1FF5092110090
:1005C4002C502D10D8B404D02C502D10D8A404D005
:1005D4002A5070EC03F0120020EE04F02C50D926BF
:1005E4002D50DA22DE50DE10D8B416D020EE04F0FE
:1005F4002C50D9262D50DA2210EE02F02C50E12690
:100604002D50E222DE50E65CE650800A326EDE5067
:10061400800A3258D8B0120020EE02F02C50D926AD
:100624002D50DA22DE2A000EDD2212003BC03FF0FC
:100634003CC040F0000E226E000E216E12D039C074
:1006440033F03AC034F03F0E356E000E366E3DC0C6
:1006540037F03EC038F040EC02F0335021263450DD
:1006640022223FC0F6FF40C0F7FF0800F550000902
:10067400D8A4E5D721C039F022C03AF01200430EC5
:10068400456E000E466E000E396E000E3A6E41C085
:100694003BF042C03CF0450E3D6E000E3E6E18EC41
:1006A40003F0120000EE01F0280EEE6AE806FDE108
:1006B40050905092000EF86E030EF76E00018AEF10
:1006C40001F0949C948EAC98AC9CAC8AAB9CAB88A7
:1006D400AB8EAA96AC94810EAF6E1200296E260ED4
:1006E400AC6EAB8E9EA8FED729C0ADFF12009390CE
:0A06F400939263EC03F01200120071
:020000040020DA
:08000000FFFFFFFFFFFFFFFF00
:020000040030CA
:0E000000FFC20D3E3C1D81FF0FC00FE00F4000
:00000001FF
