:020000040000FA
:0400000013EF00F00A
:060008005F82A8EF0BF07F
:100018005F80E0CF83F083C0E0FF5F901000D0EFF7
:020028000FF0D7
:1003000000647574796379636C6550726563656EBA
:1003100074203D20256C69200D0A00647574796392
:10032000796C65203D202564200D0A005044434F20
:10033000483A2025640D0A005044434F4C3A20258A
:10034000640D0A0050574D204572726F7200743A66
:0D0350002025640D0A006C64006C6900003B
:10035E00C6C0D9FFC7C0DAFFDECFF6FFDDCFF7FF8D
:10036E000800F550250AD8A426D1C6C0D9FFC7C0AB
:10037E00DAFFDE2A000EDD22000E0001D56F000E20
:10038E00D46FD4C0D8F0D5C0D9F0D669D769C6C05D
:10039E00D9FFC7C0DAFFDECFF6FFDDCFF7FF0800CB
:1003AE00F550640AD8B40DD0C6C0D9FFC7C0DAFF65
:1003BE00DECFF6FFDDCFF7FF0800F550690AD8A4AF
:1003CE003FD0C6C0D9FFC7C0DAFFDE2A000EDD223D
:1003DE00C8C0D9FFC9C0DAFFDFCF00F1020EDE269A
:1003EE00DFCF01F1000EDD2200C1D9FF01C1DAFF1E
:1003FE00DECFCAF0DDCFCBF0000ECBBFFF0ECC6F41
:10040E00CD6FCE6FCF6FD06FD16FC4C0A0F0C5C00F
:10041E00A1F0CAC0A2F0CBC0A3F0CCC0A4F0CDC056
:10042E00A5F0CEC0A6F0CFC0A7F0D0C0A8F0D1C026
:10043E00A9F046EC04F0A0C0C4F0A1C0C5F01200B3
:10044E00C6C0D9FFC7C0DAFFDECF84F0DDCF85F09E
:10045E00560E866F030E876F000E896F020E886F21
:10046E000AEC0CF0000184518511D8B417D0C6C027
:10047E00D9FFC7C0DAFFDECF84F0DDCF85F0590E8D
:10048E00866F030E876F000E896F020E886F0AEC5F
:10049E000CF0000184518511D8A45DD0020EC6C0A7
:1004AE00D9FFC7C0DAFFDE26000EDD22C8C0D9FF95
:1004BE00C9C0DAFFDFCF00F1040EDE26DFCF01F177
:1004CE00000EDD2200C1D9FF01C1DAFFDECF02F13D
:1004DE00DECF03F1DECF04F1DECF05F102C106F16E
:1004EE0003C107F104C108F105C109F101010A6B4D
:1004FE0009BF0A690AC10BF10AC10CF10AC10DF15B
:10050E0006C1CAF007C1CBF008C1CCF009C1CDF0CD
:10051E000AC1CEF00BC1CFF00CC1D0F00DC1D1F09D
:10052E00C4C0A0F0C5C0A1F0CAC0A2F0CBC0A3F059
:10053E00CCC0A4F0CDC0A5F0CEC0A6F0CFC0A7F021
:10054E00D0C0A8F0D1C0A9F046EC04F0A0C0C4F011
:10055E00A1C0C5F01200C6C0D9FFC7C0DAFFDECFFA
:10056E00F6FFDDCFF7FF0800F550250AD8A417D007
:10057E00C6C0D9FFC7C0DAFFDE2A000EDD22000E8C
:10058E00866F250E856FC4C087F0C5C088F018EC45
:10059E000EF0000E0001C56F010EC46F1200C6C032
:1005AE00D9FFC7C0DAFFDE2A000EDD22000EC56FAE
:1005BE00000EC46F1200C6C0D9FFC7C0DAFFDECF6F
:1005CE00F6FFDDCFF7FF0800F5500001856F866B53
:1005DE00C4C087F0C5C088F018EC0EF0C6C0D9FFB5
:1005EE00C7C0DAFFDE2A000EDD22D3D743C0D9FF03
:1005FE0044C0DAFFDECFF6FFDDCFF7FF0800F5507F
:10060E00250AD8A422D143C0D9FF44C0DAFFDE2A7E
:10061E00000EDD22000E0001D56F000ED46FD4C087
:10062E00D8F0D5C0D9F0D669D76943C0D9FF44C038
:10063E00DAFFDECFF6FFDDCFF7FF0800F550640AD4
:10064E00D8B40DD043C0D9FF44C0DAFFDECFF6FFD9
:10065E00DDCFF7FF0800F550690AD8A43FD043C09C
:10066E00D9FF44C0DAFFDE2A000EDD2245C0D9FFD5
:10067E0046C0DAFFDFCF47F0020EDE26DFCF48F0AE
:10068E00000EDD2247C0D9FF48C0DAFFDECF55F09D
:10069E00DDCF56F0000E56BEFF0E576E586E596ED9
:1006AE005A6E5B6E5C6E41C01DF042C01EF055C0AE
:1006BE001FF056C020F057C021F058C022F059C08C
:1006CE0023F05AC024F05BC025F05CC026F06AEC23
:1006DE0005F01DC041F01EC042F0120043C0D9FF0C
:1006EE0044C0DAFFDECF01F0DDCF02F0560E036E0E
:1006FE00030E046E000E066E020E056E60EC0CF01C
:10070E0001500210D8B416D043C0D9FF44C0DAFF4E
:10071E00DECF01F0DDCF02F0590E036E030E046E34
:10072E00000E066E020E056E60EC0CF0015002100B
:10073E00D8A45CD0020E43C0D9FF44C0DAFFDE2637
:10074E00000EDD2245C0D9FF46C0DAFFDFCF47F0ED
:10075E00040EDE26DFCF48F0000EDD2247C0D9FFA3
:10076E0048C0DAFFDECF49F0DECF4AF0DECF4BF0E5
:10077E00DECF4CF049C04DF04AC04EF04BC04FF0AA
:10078E004CC050F0516A50BE516851C052F051C029
:10079E0053F051C054F04DC055F04EC056F04FC0FE
:1007AE0057F050C058F051C059F052C05AF053C0D3
:1007BE005BF054C05CF041C01DF042C01EF055C04D
:1007CE001FF056C020F057C021F058C022F059C07B
:1007DE0023F05AC024F05BC025F05CC026F06AEC12
:1007EE0005F01DC041F01EC042F0120043C0D9FFFB
:1007FE0044C0DAFFDECFF6FFDDCFF7FF0800F5507D
:10080E00250AD8A416D043C0D9FF44C0DAFFDE2A89
:10081E00000EDD22000E036E250E026E41C004F0A6
:10082E0042C005F04FEC0EF0000E426E010E416E0E
:10083E00120043C0D9FF44C0DAFFDE2A000EDD22CB
:10084E00000E426E000E416E120043C0D9FF44C02E
:10085E00DAFFDECFF6FFDDCFF7FF0800F550026EB0
:10086E00036A41C004F042C005F04FEC0EF043C0E5
:10087E00D9FF44C0DAFFDE2A000EDD22D5D7A2C092
:10088E00BAF0A3C0BBF0A4C0BCF0A5C0BDF0A6C01A
:10089E00BEF0A7C0BFF0A8C0C0F0A9C0C1F0000153
:1008AE00C1AF02D0010E01D0000EB86FB96BB851B6
:1008BE00B911D8B410D0C11FC01FBF1FBE1FBD1F9E
:1008CE00BC1FBB1FBA6D000EBB23BC23BD23BE23B2
:1008DE00BF23C023C123D7AFD893D7BF05D0D751DD
:1008EE0008E1D605D8B005D0000EB56F010EB46F75
:1008FE0004D0D6C0B4F0D7C0B5F0D4C0B6F0D5C0D1
:10090E00B7F0B851B911D8A402D0D8A503D0B60704
:10091E00D8A0B707000EC36F1F0EC26F000E0101E5
:10092E004F6F7DD0C207D8A0C307300EC225D96E37
:10093E00010EC321DA6EBAC084F0BBC085F0BCC014
:10094E0086F0BDC087F0BEC088F0BFC089F0C0C0C1
:10095E008AF0C1C08BF00A0E8C6F000E8D6F000EE8
:10096E008E6F000E8F6F000E906F000E916F000E47
:10097E00926F000E936F31EC09F084C0AAF085C01F
:10098E00ABF086C0ACF087C0ADF088C0AEF089C0C9
:10099E00AFF08AC0B0F08BC0B1F0AAC096F0ACC078
:1009AE0097F06EEC0FF000019651300FDF6EB4072A
:1009BE00D8A0B507B607D8A0B707BAC084F0BBC099
:1009CE0085F0BCC086F0BDC087F0BEC088F0BFC049
:1009DE0089F0C0C08AF0C1C08BF00A0E8C6F000E79
:1009EE008D6F000E8E6F000E8F6F000E906F000ECB
:1009FE00916F000E926F000E936FE8EC07F084C0BB
:100A0E00BAF085C0BBF086C0BCF087C0BDF088C010
:100A1E00BEF089C0BFF08AC0C0F08BC0C1F000012B
:100A2E00C3BF1FD0C35103E1C205D8A01AD0BA511B
:100A3E00BB11BC11BD11BE11BF11C011C111D8A483
:100A4E0071D7B5BF05D0B55102E1B405D8B06AD79C
:100A5E00B7BF07D0B75103E1B605D8A002D0D8B3BF
:100A6E0061D7B851B911D8A402D0D8A517D0C207F2
:100A7E00D8A0C307B851B911D8A404D0000EB36FD3
:100A8E002B0E03D0000EB36F2D0EB26F300EC2259B
:100A9E00D96E010EC321DA6EB2C0DFFFA0C095F091
:100AAE00A1C096F0300EC225976F010EC321986F2C
:100ABE00B6C099F0B7C09AF0B5EC0CF095C0A0F0A6
:100ACE0096C0A1F012001FC037F020C038F021C030
:100ADE0039F022C03AF023C03BF024C03CF025C0D0
:100AEE003DF026C03EF03EAE02D0010E01D0000E0B
:100AFE00356E366A35503610D8B410D03E1E3D1EB7
:100B0E003C1E3B1E3A1E391E381E376C000E382214
:100B1E0039223A223B223C223D223E220001D7AF0F
:100B2E00D893D7BF05D0D75108E1D605D8B005D098
:100B3E00000E326E010E316E04D0D6C031F0D7C029
:100B4E0032F0D4C033F0D5C034F035503610D8A4BE
:100B5E0002D0D8A503D03306D8A03406000E406EBE
:100B6E001F0E3F6E000E01014F6F7CD03F06D8A0C6
:100B7E004006300E3F24D96E010E4020DA6E37C08B
:100B8E0001F038C002F039C003F03AC004F03BC0A7
:100B9E0005F03CC006F03DC007F03EC008F00A0E5E
:100BAE00096E000E0A6E000E0B6E000E0C6E000E1D
:100BBE000D6E000E0E6E000E0F6E000E106EC4EC5B
:100BCE0009F001C027F002C028F003C029F004C0CC
:100BDE002AF005C02BF006C02CF007C02DF008C07F
:100BEE002EF027C013F029C014F088EC0FF013502C
:100BFE00300FDF6E3106D8A032063306D8A0340689
:100C0E0037C001F038C002F039C003F03AC004F02A
:100C1E003BC005F03CC006F03DC007F03EC008F0FA
:100C2E000A0E096E000E0A6E000E0B6E000E0C6E92
:100C3E00000E0D6E000E0E6E000E0F6E000E106E7C
:100C4E008DEC08F001C037F002C038F003C039F067
:100C5E0004C03AF005C03BF006C03CF007C03DF0C2
:100C6E0008C03EF040BE20D0405003E13F04D8A063
:100C7E001BD03750381039103A103B103C103D1035
:100C8E003E10D8A473D732BE05D0325002E13104E3
:100C9E00D8B06CD734BE08D0345003E13304D8A09A
:100CAE0003D00001D8B362D735503610D8A403D084
:100CBE000001D8A517D03F06D8A0400635503610F3
:100CCE00D8A404D0000E306E2B0E03D0000E306E62
:100CDE002D0E2F6E300E3F24D96E010E4020DA6E8F
:100CEE002FC0DFFF1DC012F01EC013F0300E3F24C8
:100CFE00146E010E4020156E33C016F034C017F07E
:100D0E0004EC0DF012C01DF013C01EF012004DECDD
:100D1E0010F041EC10F02E0E48EC10F0100E010108
:100D2E001C6F270E1D6F000E1E6F000E1F6F41EC05
:100D3E0007F0020E01012B6FE80E2A6F510E040010
:100D4E00E82EFDD72A2FFBD72B2FF9D7040000F062
:100D5E000400020E01012B6FE80E2A6F510E0400E3
:100D6E00E82EFDD72A2FFBD72B2FF9D7040000F042
:100D7E000400020E01012B6FE80E2A6F510E0400C3
:100D8E00E82EFDD72A2FFBD72B2FF9D7040000F022
:100D9E000400020E01012B6FE80E2A6F510E0400A3
:100DAE00E82EFDD72A2FFBD72B2FF9D7040000F002
:100DBE000400020E01012B6FE80E2A6F510E040083
:100DCE00E82EFDD72A2FFBD72B2FF9D7040000F0E2
:100DDE000400020E01012B6FE80E2A6F510E040063
:100DEE00E82EFDD72A2FFBD72B2FF9D7040000F0C2
:100DFE000400020E01012B6FE80E2A6F510E040043
:100E0E00E82EFDD72A2FFBD72B2FF9D7040000F0A1
:100E1E000400020E01012B6FE80E2A6F510E040022
:100E2E00E82EFDD72A2FFBD72B2FF9D7040000F081
:100E3E000400020E01012B6FE80E2A6F510E040002
:100E4E00E82EFDD72A2FFBD72B2FF9D7040000F061
:100E5E000400020E01012B6FE80E2A6F510E0400E2
:100E6E00E82EFDD72A2FFBD72B2FF9D7040000F041
:100E7E0004005FD701011F5108E1A10E1C5D250E74
:100E8E001D59260E1E59D8A003D00AEC0FF03AD0E9
:100E9E001F511E1106E1C50E1C5D040E1D59D8A072
:100EAE0006D0000E256F010E246F7F502BD01F51E0
:100EBE001E1106E1320E1C5D010E1D59D8A006D082
:100ECE00000E256F040E246F7F841CD01F511E113F
:100EDE001D1104E14D0E1C5DD8A006D0000E256F2D
:100EEE00100E246F7F860ED01F511E111D1104E1AE
:100EFE00140E1C5DD8A0C9D7000E256F400E246FAE
:100F0E000C0E7F12800E7E6E24C120F125C121F1C0
:100F1E000101D89020372137D8902037213720C1B2
:100F2E0022F121C123F1000E0001846F2D0E856F79
:100F3E00310E866F010E876F22C188F023C189F0B2
:100F4E00000E89BFFF0E8A6F8B6FDBEC0AF084C038
:100F5E0026F185C027F186C028F187C029F126C168
:100F6E0084F027C185F028C186F029C187F01CC105
:100F7E0088F01DC189F01EC18AF01FC18BF094EC60
:100F8E000DF084C026F185C027F186C028F187C0F8
:100F9E0029F1FF0E010126252E6FFF0E27212F6F3F
:100FAE002EC184F02FC185F0010E0001876F000E57
:100FBE00866F51EC0DF0000184517A6E2EC17BFFCD
:100FCE001200000E0001956F93AF12D0931F921F67
:100FDE00911F901F8F1F8E1F8D1F8C6D000E8D23E6
:100FEE008E238F239023912392239323010E956FAB
:100FFE008BAF12D08B1F8A1F891F881F871F861FDA
:10100E00851F846D000E85238623872388238923DD
:10101E008A238B23010E951B20EE96F0070EDE6AB7
:10102E00E806FDE28C518D118E118F1190119111E8
:10103E0092119311D8B446D0010E946F0AD0D89065
:10104E008C378D378E378F3790379137923793375E
:10105E00942B93AFF4D7D890963797379837993714
:10106E009A379B379C379D378C51845D8D518559AE
:10107E008E5186598F51875990518859915189595E
:10108E0092518A5993518B59D8A011D08C51845FAB
:10109E008D51855B8E51865B8F51875B9051885B3E
:1010AE009151895B92518A5B93518B5B9681D8905B
:1010BE0093339233913390338F338E338D338C330E
:1010CE00942FC9D79551D8B410D09D1F9C1F9B1F2C
:1010DE009A1F991F981F971F966D000E972398239E
:1010EE0099239A239B239C239D2396C084F097C01B
:1010FE0085F098C086F099C087F09AC088F09BC0A2
:10110E0089F09CC08AF09DC08BF01200000E126E0A
:10111E0010AE12D0101E0F1E0E1E0D1E0C1E0B1E1C
:10112E000A1E096C000E0A220B220C220D220E2220
:10113E000F221022010E126E08AE12D0081E071ECC
:10114E00061E051E041E031E021E016C000E022248
:10115E00032204220522062207220822010E121A59
:10116E0020EE13F0070EDE6AE806FDE209500A10C3
:10117E000B100C100D100E100F101010D8B446D00E
:10118E00010E116E0AD0D89009360A360B360C367F
:10119E000D360E360F361036112A10AEF4D7D89003
:1011AE0013361436153616361736183619361A36CD
:1011BE000950015C0A5002580B5003580C50045849
:1011CE000D5005580E5006580F500758105008581D
:1011DE00D8A011D00950015E0A50025A0B50035A82
:1011EE000C50045A0D50055A0E50065A0F50075AFD
:1011FE001050085A1380D89010320F320E320D3222
:10120E000C320B320A320932112EC9D71250D8B411
:10121E0010D01A1E191E181E171E161E151E141E6D
:10122E00136C000E142215221622172218221922D0
:10123E001A2213C001F014C002F015C003F016C03C
:10124E0004F017C005F018C006F019C007F01AC058
:10125E0008F01200000E0001956F8BAF12D08B1F9D
:10126E008A1F891F881F871F861F851F846D000E8A
:10127E00852386238723882389238A238B23010EA4
:10128E00956F93AF10D0931F921F911F901F8F1FBA
:10129E008E1F8D1F8C6D000E8D238E238F2390231A
:1012AE009123922393238C518D118E118F119011B6
:1012BE00911192119311D8B43CD0010E946F0AD0B3
:1012CE00D8908C378D378E378F379037913792373E
:1012DE009337942B93AFF4D78C51845D8D518559F0
:1012EE008E5186598F5187599051885991518959EC
:1012FE0092518A5993518B59D8A010D08C51845F3A
:10130E008D51855B8E51865B8F51875B9051885BCB
:10131E009151895B92518A5B93518B5BD890933339
:10132E009233913390338F338E338D338C33942F9E
:10133E00D3D79551D8B410D08B1F8A1F891F881F01
:10134E00871F861F851F846D000E852386238723A6
:10135E00882389238A238B2384C084F085C085F05B
:10136E0086C086F087C087F088C088F089C089F073
:10137E008AC08AF08BC08BF01200000E126E08AE7F
:10138E0012D0081E071E061E051E041E031E021E78
:10139E00016C000E022203220422052206220722DD
:1013AE000822010E126E10AE10D0101E0F1E0E1E51
:1013BE000D1E0C1E0B1E0A1E096C000E0A220B229D
:1013CE000C220D220E220F22102209500A100B1091
:1013DE000C100D100E100F101010D8B43CD0010EC2
:1013EE00116E0AD0D89009360A360B360C360D36E9
:1013FE000E360F361036112A10AEF4D70950015C96
:10140E000A5002580B5003580C5004580D500558F2
:10141E000E5006580F50075810500858D8A010D02C
:10142E000950015E0A50025A0B50035A0C50045ACE
:10143E000D50055A0E50065A0F50075A1050085AA2
:10144E00D89010320F320E320D320C320B320A326D
:10145E000932112ED3D71250D8B410D0081E071E41
:10146E00061E051E041E031E021E016C000E022225
:10147E0003220422052206220722082201C001F0BF
:10148E0002C002F003C003F004C004F005C005F072
:10149E0006C006F007C007F008C008F01200640E80
:1014AE0000017025016E000E7121026E000E722178
:1014BE00036E000E7321046E2EC105F02FC106F0CF
:1014CE00000E06BEFF0E076E086EDFEC0EF001C0BA
:1014DE000DF002C00EF003C00FF004C010F0C80EE5
:1014EE00116E000E126E000E136E000E146E42EC94
:1014FE000BF00DC076F00EC077F076C074F077C0AA
:10150E0075F00001D89074377537D89074377537E9
:10151E0074C078F075C079F078C001F079C002F02F
:10152E00010E046E000E036ED6EC0DF00150786EB7
:10153E0078C079FF010E0001666F030E676F70C0F1
:10154E0068F071C069F072C06AF073C06BF0A1EC04
:10155E000FF01B0E0001666F030E676F76C068F00A
:10156E0077C069F0A1EC0FF02C0E0001666F030E30
:10157E00676F78C001F079C002F0010E046E000EA4
:10158E00036ED6EC0DF001C068F002C069F0A1EC5C
:10159E000FF0380E0001666F030E676F7851686F9B
:1015AE00696BA1EC0FF01200000E00018D6F8BAF76
:1015BE000AD08B1F8A1F891F886D000E89238A23EC
:1015CE008B23010E8D6F87AF0AD0871F861F851F55
:1015DE00846D000E852386238723010E8D1B000E3E
:1015EE008E6F000E8F6F000E906F000E916F8851F0
:1015FE0089118A118B11D8B42AD0010E8C6F06D0A6
:10160E00D890883789378A378B378C2B8BAFF8D7A2
:10161E00D8908E378F37903791378851845D8951A6
:10162E0085598A5186598B518759D8A009D088512E
:10163E00845F8951855B8A51865B8B51875B8E8176
:10164E00D8908B338A33893388338C2FE1D78D51E1
:10165E00D8B408D0911F901F8F1F8E6D000E8F2350
:10166E00902391238EC084F08FC085F090C086F0B9
:10167E0091C087F01200000E166E14AE0AD0141E22
:10168E00131E121E116C000E122213221422010EB2
:10169E00166E10AE0AD0101E0F1E0E1E0D6C000E12
:1016AE000E220F221022010E161A000E176E000EB9
:1016BE00186E000E196E000E1A6E115012101310C5
:1016CE001410D8B42AD0010E156E06D0D89011364B
:1016DE00123613361436152A14AEF8D7D89017369C
:1016EE00183619361A3611500D5C12500E5813500A
:1016FE000F5814501058D8A009D011500D5E12502A
:10170E000E5A13500F5A1450105A1780D890143284
:10171E00133212321132152EE1D71650D8B408D02A
:10172E001A1E191E181E176C000E182219221A22C4
:10173E0017C00DF018C00EF019C00FF01AC010F03F
:10174E001200E1CF7BF0E2CF7CF0D9CF7DF0DACF83
:10175E007EF0F6CF7FF0F7CF80F0F8CF81F0F5CFA7
:10176E0082F0F2A43ED0DAC070F0DBC071F000015E
:10177E00000E71BFFF0E726F736F56EC0AF0000110
:10178E00DA4BDB2B4E0E666F030E676FDAC068F016
:10179E00DBC069F0A1EC0FF0000ED76E000ED66E16
:1017AE000001DA51DB11D8B41BD0DA05DB11D8B445
:1017BE0017D0640EDA19DB11D8A412D0000EDB6F2D
:1017CE00000EDA6F83AE02D0010E01D0000EFF0ABA
:1017DE007A6F7A337A3383507A197F0B7A19836E44
:1017EE00F29482C0F5FF81C0F8FF80C0F7FF7FC082
:1017FE00F6FF7EC0DAFF7DC0D9FF7CC0E2FF7BC062
:10180E00E1FF5F92110084C08BF085C08CF086C022
:10181E008DF087C08EF000018807D8A0890788292F
:10182E000FE18929D8A40CD0000E856F000E846FAD
:10183E0012008B4B8C2B8D4B8E2B8807D8A08907D3
:10184E008BC0F6FF8CC0F7FF0800F5500009D8B426
:10185E001DD08DC0F6FF8EC0F7FF0800F5500009B1
:10186E00D8B414D088518911D8B410D08BC0F6FFDB
:10187E008CC0F7FF0800F5CF8AF08DC0F6FF8EC042
:10188E00F7FF0800F5508A19D8B4D3D78BC0F6FFEE
:10189E008CC0F7FF0800F5CF8AF08DC0F6FF8EC022
:1018AE00F7FF0800F5508A5D846F856BD8A0850719
:1018BE00120001C008F002C009F003C00AF004C013
:1018CE000BF00506D8A0060605280FE10628D8A4B9
:1018DE000CD0000E026E000E016E1200084A092A8C
:1018EE000A4A0B2A0506D8A0060608C0F6FF09C04C
:1018FE00F7FF0800F5500009D8B41DD00AC0F6FF56
:10190E000BC0F7FF0800F5500009D8B414D00550ED
:10191E000610D8B410D008C0F6FF09C0F7FF0800B3
:10192E00F5CF07F00AC0F6FF0BC0F7FF0800F55021
:10193E000718D8B4D3D708C0F6FF09C0F7FF0800C0
:10194E00F5CF07F00AC0F6FF0BC0F7FF0800F55001
:10195E00075C016E026AD8A0020612000001D8A12F
:10196E000AD097C08EF098C08FF095C090F096C0B8
:10197E0091F034EC0FF000019ABF05D099C09EF0A3
:10198E009AC09FF004D0000E9F6F000E9E6F000E47
:10199E009D6F000E9C6F0DD0000E866F200E856F12
:1019AE0095C087F096C088F018EC0EF000019C4BA5
:1019BE009D2B9E519C5D9D51800A9B6F9F51800A6D
:1019CE009B59D8A0E9D7D8B10AD097C08EF098C04D
:1019DE008FF095C090F096C091F034EC0FF097C058
:1019EE0084F098C085F0B9EC0FF000019E5184256B
:1019FE00956F9F518521966F12000001D8A10AD0D4
:101A0E0014C00BF015C00CF012C00DF013C00EF088
:101A1E0052EC0FF017BE05D016C01BF017C01CF00D
:101A2E0004D0000E1C6E000E1B6E000E1A6E000E01
:101A3E00196E0CD0000E036E200E026E12C004F052
:101A4E0013C005F04FEC0EF0194A1A2A1B50195C00
:101A5E001A50800A186E1C50800A1858D8A0EAD75F
:101A6E000001D8B10AD014C00BF015C00CF012C092
:101A7E000DF013C00EF052EC0FF014C001F015C0B3
:101A8E0002F0E5EC0FF01B500124126E1C500220E8
:101A9E00136E1200000E0001896F87AF06D0866D9F
:101AAE00871FD8B0872B010E896F85AF06D0846D46
:101ABE00851FD8B0852B010E891B000E8B6F000E73
:101ACE008A6F86518711D8B41CD0010E886F04D04E
:101ADE00D89086378737882B87AFFAD7D8908A3732
:101AEE008B378651845D87518559D8A005D0865194
:101AFE00845F8751855B8A81D89087338633882FA0
:101B0E00EDD78951D8B404D08A6D8B1FD8B08B2BEA
:101B1E008AC084F08BC085F01200000E00018C6F1D
:101B2E00000E8D6F000E8E6F000E8F6F8851891113
:101B3E008A118B11D8B42AD0010E906F06D0D8908E
:101B4E00883789378A378B37902B8BAFF8D7D89059
:101B5E008C378D378E378F378851845D89518559F3
:101B6E008A5186598B518759D8A009D08851845FE4
:101B7E008951855B8A51865B8B51875B8C81D890AE
:101B8E008B338A3389338833902FE1D78CC084F01E
:101B9E008DC085F08EC086F08FC087F01200000ECB
:101BAE00066E04AE06D0036C041ED8B0042A010ED5
:101BBE00066E02AE06D0016C021ED8B0022A010ECD
:101BCE00061A000E086E000E076E03500410D8B4ED
:101BDE001CD0010E056E04D0D89003360436052AAB
:101BEE0004AEFAD7D890073608360350015C04507D
:101BFE000258D8A005D00350015E0450025A078047
:101C0E00D89004320332052EEDD70650D8B404D046
:101C1E00076C081ED8B0082A07C001F008C002F0F1
:101C2E001200000187518811D8B404D08751881151
:101C3E00D8A404D085512EEC10F0120020EE04F042
:101C4E008751D9268851DA22DE50DE10D8B416D04C
:101C5E0020EE04F08751D9268851DA2210EE02F0D8
:101C6E008751E1268851E222DE50E65CE650800A7A
:101C7E008D6FDE50800A8D59D8B0120020EE02F022
:101C8E008751D9268851DA22DE2A000EDD22120073
:101C9E0004500510D8B404D004500510D8A404D0B4
:101CAE00025038EC10F0120020EE04F00450D92649
:101CBE000550DA22DE50DE10D8B416D020EE04F035
:101CCE000450D9260550DA2210EE02F00450E12617
:101CDE000550E222DE50E65CE650800A0A6EDE50C7
:101CEE00800A0A58D8B0120020EE02F00450D9260D
:101CFE000550DA22DE2A000EDD22120010C1D2F0CB
:101D0E0011C1D3F0000E01012D6F000E2C6F17D0F4
:101D1E000EC1C4F00FC1C5F0D20E0001C66F000E89
:101D2E00C76F12C1C8F013C1C9F0AFEC01F00001CA
:101D3E00C45101012C270001C55101012D23D2C030
:101D4E00F6FFD3C0F7FF0800F5500009D8A4E0D77E
:101D5E002CC10EF12DC10FF1120062C05DF063C0F7
:101D6E005EF0000E01012D6F000E2C6F13D060C0BF
:101D7E0041F061C042F05D0E436E000E446E64C0D1
:101D8E0045F065C046F0FDEC02F0415001012C27F4
:101D9E0042502D235DC0F6FF5EC0F7FF0800F550E0
:101DAE000009D8A4E4D72CC160F02DC161F0120057
:101DBE00000E096E000E0A6E000E0B6E000E0C6EFB
:101DCE0001A008D00550092606500A2207500B2202
:101DDE0008500C22D8900536063607360836D890AD
:101DEE000432033202320132015002100310041089
:101DFE00D8A4E6D709C001F00AC002F00BC003F068
:101E0E000CC004F01200000E936E000E6F6E440EA6
:101E1E000101146F030E156FFAEC0FF0818A4D0E4F
:101E2E0001011B6F260E1A6F050E0400E82EFDD75A
:101E3E001A2FFBD71B2FF9D70400819A4D0E0101E3
:101E4E001B6F260E1A6F050E0400E82EFDD71A2FF3
:101E5E00FBD71B2FF9D70400E1D7000E0001946FBA
:101E6E00000E936F0CD092C085F0866B90C087F0F9
:101E7E0091C088F018EC0EF00001934B942B935107
:101E8E008E25D96E94518F21DA6EDF50926F92515A
:101E9E00D8B41200E8D7000E116E000E106E0BD0E3
:101EAE000FC002F0036A0DC004F00EC005F04FEC37
:101EBE000EF0104A112A10500B24D96E11500C201E
:101ECE00DA6EDF500F6E0F50D8B41200E9D7000152
:101EDE0097BF05D0975110E19605D8B00DD096C09A
:101EEE0098F097C099F0981F991F984B992B98C00E
:101EFE0096F099C097F0120096C096F097C097F0A2
:101F0E00120014BE05D0145010E11304D8B00DD039
:101F1E0013C015F014C016F0151E161E154A162AFB
:101F2E0015C013F016C014F0120013C013F014C035
:101F3E0014F01200680E00016E6F000E6F6F000E2F
:101F4E00606F000E616F66C062F067C063F06E0E68
:101F5E00646F000E656FB4EC0EF060C06CF061C083
:101F6E006DF0120084C086F085C087F003D00001AA
:101F7E00844B852B84C0D9FF85C0DAFFDF50D8A4EF
:101F8E00F6D700018651845D846F87518559856F20
:101F9E00120001EE2CF0240EEE6AE806FDE100EED2
:101FAE00D4F0080EEE6AE806FDE15F905F92000E37
:101FBE00F86E030EF76E00018EEF06F001C003F00F
:101FCE0002C004F002D0014A022A01C0D9FF02C0A9
:101FDE00DAFFDF50D8A4F7D70350015C016E04502E
:101FEE000258026E1200160E0101186F010E196FC3
:101FFE00000E0E6F000E0F6F14C110F115C111F10E
:10200E00180E126F010E136F85EC0EF01200D59E96
:10201E00D59CD59AD596D550F80B0309D56E000EE2
:10202E00D76E000ED66EF294F28AD09EF28CF28E9D
:10203E00D58E1200949C948EAC98AC9CAC8AAB9CC2
:10204E00AB88AB8EAA96AC94810EAF6E12000001D7
:10205E00846F260EAC6EAB8E9EA8FED784C0ADFFED
:10206E001200016E260EAC6EAB8E9EA8FED701C07E
:10207E00ADFF1200959E959C21EC10F00EEC10F029
:0E208E0012000001846F84C06FFF1200120068
:020000040020DA
:08000000FFFFFFFFFFFFFFFF00
:020000040030CA
:0E000000FFC20D3E3C1D81FF0FC00FE00F4000
:00000001FF
