:020000040000FA
:0400000013EF00F00A
:06000800548299EF02F0A2
:100018005480E0CF60F060C0E0FF549010009DEF86
:0200280003F0E3
:100300000050574D204572726F720074696D6572AE
:05031000210D0A0000B0
:10031600C9EC03F0C2EC03F01FEC03F0020E00017F
:10032600626FE80E616F510E0400E82EFDD7612F53
:10033600FBD7622FF9D7040000F00400020E00017B
:10034600626FE80E616F510E0400E82EFDD7612F33
:10035600FBD7622FF9D7040000F00400020E00015B
:10036600626FE80E616F510E0400E82EFDD7612F13
:10037600FBD7622FF9D7040000F00400020E00013B
:10038600626FE80E616F510E0400E82EFDD7612FF3
:10039600FBD7622FF9D7040000F00400020E00011B
:1003A600626FE80E616F510E0400E82EFDD7612FD3
:1003B600FBD7622FF9D7040000F00400020E0001FB
:1003C600626FE80E616F510E0400E82EFDD7612FB3
:1003D600FBD7622FF9D7040000F00400020E0001DB
:1003E600626FE80E616F510E0400E82EFDD7612F93
:1003F600FBD7622FF9D7040000F00400020E0001BB
:10040600626FE80E616F510E0400E82EFDD7612F72
:10041600FBD7622FF9D7040000F00400020E00019A
:10042600626FE80E616F510E0400E82EFDD7612F52
:10043600FBD7622FF9D7040000F00400020E00017A
:10044600626FE80E616F510E0400E82EFDD7612F32
:10045600FBD7622FF9D7040000F004005FD739C03C
:10046600D9FF3AC0DAFFDECFF6FFDDCFF7FF08008F
:10047600F550250AD8A440D039C0D9FF3AC0DAFFD2
:10048600DE2A000EDD22000E246E000E236E23C02F
:1004960027F024C028F02568266839C0D9FF3AC05D
:1004A600DAFFDECFF6FFDDCFF7FF0800F550250AAD
:1004B600D8A416D039C0D9FF3AC0DAFFDE2A000E1A
:1004C600DD22000E2F6E250E2E6E37C030F038C09E
:1004D60031F0E9EC02F0000E386E010E376E1200B4
:1004E60039C0D9FF3AC0DAFFDE2A000EDD22000E3F
:1004F600386E000E376E120039C0D9FF3AC0DAFFE7
:10050600DECFF6FFDDCFF7FF0800F5502E6E2F6A1F
:1005160037C030F038C031F0E9EC02F039C0D9FF0D
:100526003AC0DAFFDE2A000EDD22D5D7E1CF4CF045
:10053600E2CF4DF0D9CF4EF0DACF4FF0F6CF50F0F4
:10054600F7CF51F0F8CF52F0F5CF53F0F2A42CD0FC
:100556002B4A2C2A0B0E456E030E466E8AEC03F0D0
:10056600000ED76E000ED66E2B502C10D8B41BD0B2
:100576002B042C10D8B417D0020E2B182C10D8A48C
:1005860012D0000E2C6E000E2B6E83AE02D0010E22
:1005960001D0000EFF0A4B6E4B324B3283504B1884
:1005A6007F0B4B18836EF29453C0F5FF52C0F8FFD1
:1005B60051C0F7FF50C0F6FF4FC0DAFF4EC0D9FF5B
:1005C6004DC0E2FF4CC0E1FF549211003050311093
:1005D600D8B404D030503110D8A404D02E50B9EC81
:1005E60003F0120020EE04F03050D9263150DA2202
:1005F600DE50DE10D8B416D020EE04F03050D926E6
:100606003150DA2210EE02F03050E1263150E2226B
:10061600DE50E65CE650800A366EDE50800A3658BA
:10062600D8B0120020EE02F03050D9263150DA222E
:10063600DE2A000EDD221200000E806E000E816E94
:10064600000E836E000E846E000E936E000E956E85
:10065600370E896E000E8A6E000E8C6E030E8D6E3E
:100666000F0E7F160C0E7F12FC0E7F167E8E7E9C62
:100676006F508F0B20096F6E6F50F00B0E096F6E67
:10068600000E6E6E010E7A6E380E7B6E030E786E5D
:10069600340E796E12003FC043F040C044F0000EA5
:1006A600226E000E216E12D03DC037F03EC038F0EB
:1006B600430E396E000E3A6E41C03BF042C03CF02C
:1006C60032EC02F0375021263850222243C0F6FF82
:1006D60044C0F7FF0800F5500009D8A4E5D721C0AB
:1006E6003DF022C03EF01200D59ED59CD59AD596F7
:1006F600D550F80B0309D56E000ED76E000ED66ED8
:10070600F294F28AD09EF28CF28ED58E1200470EAB
:10071600496E000E4A6E000E3D6E000E3E6E45C0DE
:100726003FF046C040F0490E416E000E426E4EEC60
:1007360003F0120000EE01F02C0EEE6AE806FDE171
:1007460054905492000EF86E030EF76E00018BEF74
:1007560001F0949C948EAC98AC9CAC8AAB9CAB8814
:10076600AB8EAA96AC94810EAF6E12002D6E260E3D
:10077600AC6EAB8E9EA8FED72DC0ADFF1200959E27
:0E078600959CACEC03F077EC03F0120012002F
:020000040020DA
:08000000FFFFFFFFFFFFFFFF00
:020000040030CA
:0E000000FFC20D3E3C1D81FF0FC00FE00F4000
:00000001FF
