:020000040000FA
:0400000013EF00F00A
:060008004A8211EF03F033
:100018004A80E0CF29F029C0E0FF4A901000E8EFBD
:0200280002F0E4
:100300000068656C6C6F20776F726C64212F722FA0
:030310006E00007C
:1003140013EC03F00DEC03F0010E426E030E436E7A
:10032400D5EC02F08180020E496EE80E486E520E42
:100334000400E82EFDD7482EFBD7492EF9D7020E2C
:10034400496EE80E486E520E0400E82EFDD7482E82
:10035400FBD7492EF9D7020E496EE80E486E520EAD
:100364000400E82EFDD7482EFBD7492EF9D7020EFC
:10037400496EE80E486E520E0400E82EFDD7482E52
:10038400FBD7492EF9D7020E496EE80E486E520E7D
:100394000400E82EFDD7482EFBD7492EF9D78190CB
:1003A400020E496EE80E486E520E0400E82EFDD788
:1003B400482EFBD7492EF9D7020E496EE80E486E37
:1003C400520E0400E82EFDD7482EFBD7492EF9D74C
:1003D400020E496EE80E486E520E0400E82EFDD758
:1003E400482EFBD7492EF9D7020E496EE80E486E07
:1003F400520E0400E82EFDD7482EFBD7492EF9D71C
:10040400020E496EE80E486E520E0400E82EFDD727
:10041400482EFBD7492EF9D77FD736C0D9FF37C02E
:10042400DAFFDECFF6FFDDCFF7FF0800F550250A2F
:10043400D8A440D036C0D9FF37C0DAFFDE2A000E78
:10044400DD22000E246E000E236E23C027F024C08C
:1004540028F02568266836C0D9FF37C0DAFFDECF1A
:10046400F6FFDDCFF7FF0800F550250AD8A416D013
:1004740036C0D9FF37C0DAFFDE2A000EDD22000EB7
:100484002C6E250E2B6E34C02DF035C02EF076EC7C
:1004940002F0000E356E010E346E120036C0D9FF24
:1004A40037C0DAFFDE2A000EDD22000E356E000EA4
:1004B400346E120036C0D9FF37C0DAFFDECFF6FF44
:1004C400DDCFF7FF0800F5502B6E2C6A34C02DF0F9
:1004D40035C02EF076EC02F036C0D9FF37C0DAFF13
:1004E400DE2A000EDD22D5D72D502E10D8B404D02C
:1004F4002D502E10D8A404D02B5004EC03F012007D
:1005040020EE04F02D50D9262E50DA22DE50DE10D3
:10051400D8B416D020EE04F02D50D9262E50DA226D
:1005240010EE02F02D50E1262E50E222DE50E65C61
:10053400E650800A336EDE50800A3358D8B0120079
:1005440020EE02F02D50D9262E50DA22DE2A000E9B
:10055400DD2212003CC040F03DC041F0000E226E8E
:10056400000E216E12D03AC034F03BC035F0400E7C
:10057400366E000E376E3EC038F03FC039F00FECD7
:1005840002F0345021263550222240C0F6FF41C0EB
:10059400F7FF0800F5500009D8A4E5D721C03AF0C8
:1005A40022C03BF01200440E466E000E476E000E51
:1005B4003A6E000E3B6E42C03CF043C03DF0460E26
:1005C4003E6E000E3F6EACEC02F0120000EE01F045
:1005D400280EEE6AE806FDE14A904A92000EF86E93
:1005E400030EF76E00018AEF01F0949C948EAC9890
:1005F400AC9CAC8AAB9CAB88AB8EAA96AC94810EB7
:10060400AF6E12002A6E260EAC6EAB8E9EA8FED77D
:100614002AC0ADFF12009390F7EC02F012004A9248
:0406240011001200AF
:020000040020DA
:08000000FFFFFFFFFFFFFFFF00
:020000040030CA
:0E000000FFC20D3E3C1D81FF0FC00FE00F4000
:00000001FF
